:04000000020049327F
:01000B0032C2
:0100130032BA
:01001B0032B2
:0100230032AA
:01002B0032A2
:01003300329A
:01003B003292
:03004300020111A6
:1A00A200782D7600782E7600782F76000876007831760078327604020046E7
:0300460002068F20
:2000BC0075E20053E27F43E22975E30053E2BF53D1FB75D18043D1012243E10443E10243D2
:2000DC00E10143E18043D81FD2EAD2AF227E407F018EEE8FEF7E807F018EE48FE575EB08E1
:2000FC0075D41075D2127E007F018EEC8FED75EA4075DC0222C021C0E0C0F0C082C083C0B4
:20011C0007C006C005C004C003C002C001C000C0D075D00020D903020629743F55D9FFFE87
:20013C00BE0003020621BF02028048BF1002801DBF11028018BF12028013BF20030205A661
:20015C00BF2102801CBF30028042020627782F8606088607782F74012EF6E43F08F60206F2
:20017C002775D30074FC55D24402F5D27831760002062720DE03020627782DA6DB782E7690
:20019C000074F355D44408F5D4020627AEDB7F00BE0805BF00028003020576900107E0FE65
:2001BC007F00900106E07C004FF508EC4EF5097E007F008F0D900101E0F50A900100E0FDB5
:2001DC005305607C00BD4005BC00028003020289750D01E50845097022E50A24FB5003024C
:2001FC00057AE50A75F003A49002087302057A02057A02057A02057A02057A7405B50A029D
:20021C00803A7409B50A0280467490B50A4F900104E025E0FD900A9C93900100F07C000DA8
:20023C00BD00010CED249CF582EC340AF583E493FD900101F07E027F0002057A9001007497
:20025C0031F09001017460F07E027F0002057A9001027832E0F67E007F0002057A90010069
:20027C00E4F0900101F07E027F0002057A900100E0FD54606003020570E50A24F550030233
:20029C00056AE50A75F003A49002A8730205480203E402056A02045F02056A0203B10202F2
:2002BC00C902056A0203BE0203DB02057A900103E0FDBD0102800ABD02028014BD03728002
:2002DC001E750F1C75100B7511807C127D008065750F2E75100B7511807C207D00805690F7
:2002FC000102E0700F750F4E75100B7511807C047D008041900102E0FBBB010F750F7C75AC
:20031C00100B7511807C0E7D00802A900102E0FBBB020F750F6475100B7511807C187D0026
:20033C008013750F5275100B7511807C127D0080047CFF7D00C3EC9508ED950950048C085C
:20035C008D09AC08AD09C3EC9408ED9400920040067C087D008004AC08AD098C068D078543
:20037C000F228510238511248E258F2690010075F000C007C006120A0CD006D007E508C34E
:20039C009EF508E5099FF509EE250FF50FEF3510F51002057A900102E0FD8D0875090002B6
:2003BC00057A900100E50CF0AC08AD09C3EC9401ED9400500302057A7E017F0002057A901E
:2003DC000102E0F50C02057A900100E0541F7033900103E0FC7D00900102E0FB7A004205F9
:2003FC00EA4204BD0116BC0013900B35E493FD30E50302057A7EFF7F0002057A7EFF7F00B8
:20041C0002057A900100E0FD53051F7C00BD022CBC0029900104E0FDBD02028005BD811107
:20043C00800553D473800E74BC55D24402F5D280047EFF7F007831760002057A7EFF7F0073
:20045C0002057A900100E0541F704D900103E0FC7D00900102E0FB7A004205EA4204BD0154
:20047C0030BC002D900B35E493FD30E51DE5A220E7FB75A15575A1AA75A9C143870275A15C
:20049C005575A1AA75A90002057A7EFF7F0002057A7EFF7F0002057A900100E0FD53051FAD
:2004BC007C00BD0205BC00028002807A900103E0FC7D00900102E0FB7A004205EA4204ED6D
:2004DC004C705D900105E0FC7D00900104E0FB7A004205EA4204BD0105BC00028034BD02A3
:2004FC0005BC00028018BD8105BC0002801ABD8229BC002674BF55D44403F5D48060747F61
:20051C0055D4440CF5D4805674BF55D24403F5D2804C747F55D2440CF5D27EFF7F00803E88
:20053C007EFF7F0080387EFF7F008032900100E4F0900101F0AC08AD09C3EC9402ED940026
:20055C0040067E027F008016AE08AF0980107EFF7F00800A7EFF7F0080047EFF7F008E0412
:20057C008F05BCFF0CBD0009750AFF75DCCF020627C374089CE49D40088EDD75DCC0020649
:20059C002775DD0075DCC00206277405B50A0280587406B50A67AE08AF09C3EE9408EF9496
:2005BC0000920040067E087F008004AE08AF09850F228510238511248E258F2690010075BA
:2005DC00F000C007C006120A0CD006D007E508C39EF508E5099FF509EE250FF50FEF35107D
:2005FC00F5108EDD63DC408022E50D701EE5E35480FFE508FE4FF5E375DC02800E75DD00EE
:20061C0075DC02800675DD0085DCDCC2D930D81D75DC0275D21275D41075E300C2DAC2D902
:20063C00C2D8782D7600750C007831760010DA028021E5DA30E21FE5A220E7FB75A1557563
:20065C00A1AA75A9C143870275A15575A1AA75A900800375D8FFD0D0D000D001D002D0038A
:20067C00D004D005D006D007D083D082D0F0D0E0D021327F008F1BE4F51CF51DC0071209BE
:20069C00599000051209817582001209BD75FB041200BC1200E91200D5D00753924D4392E3
:2006BC00404393F25396EB43960843971CD296D2B375DD0075D3009001407431F0900141AC
:2006DC007460F07833760078347600750E01D291E50C60FC751A00782DE67003020721C04C
:2006FC0007C0E005A290008015A2900180852D07E0A3A5D507FAD0E0D00753D4F3782D8635
:20071C001A782D76007A00C3EA951A4003020892EA2480F582E43400F583E0F5A00AEF6070
:20073C00030207CD75FA00A2A7E433FDA2A6E433F51BED600DE5A0543FFF3094CA75FA60BB
:20075C0080C5E51B604FA2A5B39291A2A49295A2A192B2A2A09297A2A292B4A2A3929478A0
:20077C00338682758300A296E433F0783386047D0078338682758300E0FBA2B3E43325E042
:20079C00FE42038C828D83EBF07833067833E6547FF6020723A2A5B39291A2A49295A2A1FD
:2007BC0092B2A2A09297A2A292B4A2A392940207231FE51B700302087F2094777833868254
:2007DC00758300A2A09295A2B392A0D297C297A2A19295A2B392A1D297C297A2A29295A292
:2007FC00B392A2D297C297A2A39295A2B392A3D297C297A2A49295A2B392A4D297C297A220
:20081C00A59295A2B392A5D297C297A2A69295A2B392A6D297C297A2A79295A2B392A7D214
:20083C0097C297E5A0FEF07833067833E6547FF6020723783386057E0085A082C007C0061A
:20085C00C005C0021209E0D002D005D006D007ACF98D828E83ECF07833067833E6547FF6FA
:20087C0002072385A082C007C0021209E0D002D007E5F90207237831E660030206EC7833C1
:20089C007934E6C397FE30E70674802EFD80028E058D06C374808EF063F08095F0505BC372
:2008BC00EE648094BE920140067C3E7D008006EEFC3395E0FD7835A6047E00C3EE9C502B36
:2008DC008E050D0DED3395E0FBED2440FDEB3401FB78348682758300E0FA8D828B83F0784B
:2008FC0034067834E6547FF60E80D07831760174022CF5D353D2FC0206EC782FE6C3951C49
:20091C00FD08E6951DFE783286037C00C3EB9DEC9E5014782F861C08861D7831760175D3DC
:1D093C000253D2FC0206ECE50E70030206EC150E7831760175D30253D2FC0206EC8B
:200A9C000000FB090160000480E11C000002940EA218BA120E0341006C0074006500720021
:200ABC00610018035500530042002D0042006C006100730074006500720012034300300032
:200ADC0042004600410036004400370002030100524556420000000000000000000000004B
:200AFC00000000000000000000000000000000000000000000000000000000000000B5B273
:200B1C001201000200000008FB0901600004010203010902200001010080E109040000028F
:200B3C00FFFFFF000705810240000107050202400001040309041203430030004200460057
:200B5C00410036004400370018035500530042002D0042006C006100730074006500720088
:0E0B7C000E0341006C00740065007200610001
:2009590075A15575A1AA74F855B94405F5B975A10022AE82AF83EE4F600D05A105A105A1AC
:200979001EBEFF011F80EF22AE82AF83EE4F60159003E8C007C00612096BD006D0071EBEA7
:20099900FF011F80E722AE82AF8310990280FB8E998E828F832210980280FBAE997F008E2A
:0409B900828F832284
:2009BD00AF82BF010375FA00BF020375FA60EF700575FC08F5FA2243FC5043FA01E5F87517
:2009DD00F8FF228582F930FBFD2275F9FF30FBFD85F9822275FC8075FA8953920F53930F0E
:0F09FD00228582F930FBFD2230FBFD85F9822235
:06007800E478FFF6D8FD5C
:200A0C00AD82AE83AFF08D278E288F2985222A85232B85242CA825A9268803890418B8FFAD
:200A2C000119EB4C6025852A82852B83852CF0120A7CFCA385822A85832B8D828E838FF095
:150A4C00EC120A61A3AD82AE8380CE8527828528838529F022BD
:200056007900E94400601B7A00900B8A780075A000E493F2A308B8000205A0D9F4DAF275BC
:02007600A0FFE9
:1B0A610020F71130F6138883A88220F509F6A8837583002280FEF280F5F02294
:20007E007800E84400600A790075A000E4F309D8FC7800E84400600C7900900000E4F0A382
:04009E00D8FCD9FAB7
:0D004900758135120A98E5826003020046B9
:1C0A7C0020F71430F6148883A88220F507E6A88375830022E280F7E49322E02289
:040A98007582002241
:00000001FF
